:1000000016EF00F0EA6A2F0EE96EEF500EE00F0EC9
:10001000016E006A002EFED7012EFBD78F0E006EF8
:10002000002EFED70000EF2EF2D71200F86AD09E05
:10003000C150C00B0F09C16E070EB46E14D024005E
:100040000480A0A8AAABAFBFFF0010181C1E1F3F62
:100050007FFF0080C0C8CCECFCFEFF000103070F4F
:100060001F3F7FFF0000000EF86E000EF76E3E0E81
:10007000F66E0900F550006E000A13E00900F55015
:10008000016EE8BE05D00F0BEA6E0900F5CFE9FF5F
:1000900001BC090001AC0900F5CFEEFF004EE9D725
:1000A000F9D7F86A286A296A2A6A2B6A2C6A2E6AA2
:1000B0002D6A936A9568816A2A520FE183A403D05E
:1000C000010E286E09D083A603D0010E296E04D03C
:1000D00083AA02D0010E2A6EEFD72A6A2B52D8A427
:1000E000D0D0285233E1295231E12C50080828E3BE
:1000F000036A2C50040FE96E000E0320EA6EEFCF66
:1001000081FF83B81DD02E6A010E2D6E2E5001087E
:1001100010E303E12D50F4080CE3010E2F6E72DFA3
:1001200083A803D0090E2C6E04D02D2AD8B42E2A11
:10013000EDD72C50080802E12C6A01D02C2AD5D723
:10014000816A286A296A010E2B6E9AD0282C33D036
:10015000295231E12C50080828E3036A2C500D0F76
:10016000E96E000E0320EA6EEFCF81FF83B81DD049
:100170002E6A010E2D6E2E50010810E303E12D5062
:10018000F4080CE3010E2F6E3DDF83A803D0090EA7
:100190002C6E04D02D2AD8B42E2AEDD72C50080866
:1001A00002E12C6A01D02C2AD5D7816A286A296AF3
:1001B000010E2B6E65D0285233E1292C31D02C5002
:1001C000080828E3036A2C50160FE96E000E03207E
:1001D000EA6EEFCF81FF83B81DD02E6A010E2D6E1F
:1001E0002E50010810E303E12D50F4080CE3010E3A
:1001F0002F6E08DF83A803D0090E2C6E04D02D2AA1
:10020000D8B42E2AEDD72C50080802E12C6A01D070
:100210002C2AD5D7816A286A296A010E2B6E30D024
:100220002C50080828E3036A2C501F0FE96E000EBB
:100230000320EA6EEFCF81FF83B81DD02E6A010E36
:100240002D6E2E50010810E303E12D50F4080CE34D
:10025000010E2F6ED7DE83A803D0090E2C6E04D0BA
:100260002D2AD8B42E2AEDD72C50080802E12C6A8A
:1002700001D02C2AD5D7816A286A296A010E2B6EF3
:0A0280002DD72B6A2C6A18D7030053
:020000040030CA
:0E00000024CE3E1E0087A1000FC00FE00F406F
:00000001FF
;PIC18F4550
;CRC=89DD  CREATED="23-ago.-22 18:19"
